{
  "_format": "hh-sol-artifact-1",
  "contractName": "EdNFTs",
  "sourceName": "contracts/EdNFTs.sol",
  "abi": [
    {
      "inputs": [],
      "stateMutability": "payable",
      "type": "constructor"
    },
    {
      "anonymous": false,
      "inputs": [
        {
          "indexed": true,
          "internalType": "address",
          "name": "owner",
          "type": "address"
        },
        {
          "indexed": true,
          "internalType": "address",
          "name": "approved",
          "type": "address"
        },
        {
          "indexed": true,
          "internalType": "uint256",
          "name": "tokenId",
          "type": "uint256"
        }
      ],
      "name": "Approval",
      "type": "event"
    },
    {
      "anonymous": false,
      "inputs": [
        {
          "indexed": true,
          "internalType": "address",
          "name": "owner",
          "type": "address"
        },
        {
          "indexed": true,
          "internalType": "address",
          "name": "operator",
          "type": "address"
        },
        {
          "indexed": false,
          "internalType": "bool",
          "name": "approved",
          "type": "bool"
        }
      ],
      "name": "ApprovalForAll",
      "type": "event"
    },
    {
      "anonymous": false,
      "inputs": [
        {
          "indexed": true,
          "internalType": "address",
          "name": "previousOwner",
          "type": "address"
        },
        {
          "indexed": true,
          "internalType": "address",
          "name": "newOwner",
          "type": "address"
        }
      ],
      "name": "OwnershipTransferred",
      "type": "event"
    },
    {
      "anonymous": false,
      "inputs": [
        {
          "indexed": true,
          "internalType": "address",
          "name": "from",
          "type": "address"
        },
        {
          "indexed": true,
          "internalType": "address",
          "name": "to",
          "type": "address"
        },
        {
          "indexed": true,
          "internalType": "uint256",
          "name": "tokenId",
          "type": "uint256"
        }
      ],
      "name": "Transfer",
      "type": "event"
    },
    {
      "inputs": [
        {
          "internalType": "address",
          "name": "to",
          "type": "address"
        },
        {
          "internalType": "uint256",
          "name": "tokenId",
          "type": "uint256"
        }
      ],
      "name": "approve",
      "outputs": [],
      "stateMutability": "nonpayable",
      "type": "function"
    },
    {
      "inputs": [
        {
          "internalType": "address",
          "name": "owner",
          "type": "address"
        }
      ],
      "name": "balanceOf",
      "outputs": [
        {
          "internalType": "uint256",
          "name": "",
          "type": "uint256"
        }
      ],
      "stateMutability": "view",
      "type": "function"
    },
    {
      "inputs": [
        {
          "internalType": "uint256",
          "name": "tokenId",
          "type": "uint256"
        }
      ],
      "name": "getApproved",
      "outputs": [
        {
          "internalType": "address",
          "name": "",
          "type": "address"
        }
      ],
      "stateMutability": "view",
      "type": "function"
    },
    {
      "inputs": [],
      "name": "getMaxSupply",
      "outputs": [
        {
          "internalType": "uint256",
          "name": "",
          "type": "uint256"
        }
      ],
      "stateMutability": "view",
      "type": "function"
    },
    {
      "inputs": [],
      "name": "getTotalSupply",
      "outputs": [
        {
          "internalType": "uint256",
          "name": "",
          "type": "uint256"
        }
      ],
      "stateMutability": "view",
      "type": "function"
    },
    {
      "inputs": [
        {
          "internalType": "address",
          "name": "owner",
          "type": "address"
        },
        {
          "internalType": "address",
          "name": "operator",
          "type": "address"
        }
      ],
      "name": "isApprovedForAll",
      "outputs": [
        {
          "internalType": "bool",
          "name": "",
          "type": "bool"
        }
      ],
      "stateMutability": "view",
      "type": "function"
    },
    {
      "inputs": [],
      "name": "isPublicMintEnabled",
      "outputs": [
        {
          "internalType": "bool",
          "name": "",
          "type": "bool"
        }
      ],
      "stateMutability": "view",
      "type": "function"
    },
    {
      "inputs": [],
      "name": "maxPerWallet",
      "outputs": [
        {
          "internalType": "uint256",
          "name": "",
          "type": "uint256"
        }
      ],
      "stateMutability": "view",
      "type": "function"
    },
    {
      "inputs": [],
      "name": "maxSupply",
      "outputs": [
        {
          "internalType": "uint256",
          "name": "",
          "type": "uint256"
        }
      ],
      "stateMutability": "view",
      "type": "function"
    },
    {
      "inputs": [
        {
          "internalType": "uint256",
          "name": "quantity_",
          "type": "uint256"
        }
      ],
      "name": "mint",
      "outputs": [],
      "stateMutability": "payable",
      "type": "function"
    },
    {
      "inputs": [],
      "name": "mintPrice",
      "outputs": [
        {
          "internalType": "uint256",
          "name": "",
          "type": "uint256"
        }
      ],
      "stateMutability": "view",
      "type": "function"
    },
    {
      "inputs": [],
      "name": "name",
      "outputs": [
        {
          "internalType": "string",
          "name": "",
          "type": "string"
        }
      ],
      "stateMutability": "view",
      "type": "function"
    },
    {
      "inputs": [],
      "name": "owner",
      "outputs": [
        {
          "internalType": "address",
          "name": "",
          "type": "address"
        }
      ],
      "stateMutability": "view",
      "type": "function"
    },
    {
      "inputs": [
        {
          "internalType": "uint256",
          "name": "tokenId",
          "type": "uint256"
        }
      ],
      "name": "ownerOf",
      "outputs": [
        {
          "internalType": "address",
          "name": "",
          "type": "address"
        }
      ],
      "stateMutability": "view",
      "type": "function"
    },
    {
      "inputs": [],
      "name": "renounceOwnership",
      "outputs": [],
      "stateMutability": "nonpayable",
      "type": "function"
    },
    {
      "inputs": [
        {
          "internalType": "address",
          "name": "from",
          "type": "address"
        },
        {
          "internalType": "address",
          "name": "to",
          "type": "address"
        },
        {
          "internalType": "uint256",
          "name": "tokenId",
          "type": "uint256"
        }
      ],
      "name": "safeTransferFrom",
      "outputs": [],
      "stateMutability": "nonpayable",
      "type": "function"
    },
    {
      "inputs": [
        {
          "internalType": "address",
          "name": "from",
          "type": "address"
        },
        {
          "internalType": "address",
          "name": "to",
          "type": "address"
        },
        {
          "internalType": "uint256",
          "name": "tokenId",
          "type": "uint256"
        },
        {
          "internalType": "bytes",
          "name": "data",
          "type": "bytes"
        }
      ],
      "name": "safeTransferFrom",
      "outputs": [],
      "stateMutability": "nonpayable",
      "type": "function"
    },
    {
      "inputs": [
        {
          "internalType": "address",
          "name": "operator",
          "type": "address"
        },
        {
          "internalType": "bool",
          "name": "approved",
          "type": "bool"
        }
      ],
      "name": "setApprovalForAll",
      "outputs": [],
      "stateMutability": "nonpayable",
      "type": "function"
    },
    {
      "inputs": [
        {
          "internalType": "string",
          "name": "baseTokenUri_",
          "type": "string"
        }
      ],
      "name": "setBaseTokenUri",
      "outputs": [],
      "stateMutability": "nonpayable",
      "type": "function"
    },
    {
      "inputs": [
        {
          "internalType": "bool",
          "name": "isPublicMintEnabled_",
          "type": "bool"
        }
      ],
      "name": "setIsPublicMintEnabled",
      "outputs": [],
      "stateMutability": "nonpayable",
      "type": "function"
    },
    {
      "inputs": [
        {
          "internalType": "bytes4",
          "name": "interfaceId",
          "type": "bytes4"
        }
      ],
      "name": "supportsInterface",
      "outputs": [
        {
          "internalType": "bool",
          "name": "",
          "type": "bool"
        }
      ],
      "stateMutability": "view",
      "type": "function"
    },
    {
      "inputs": [],
      "name": "symbol",
      "outputs": [
        {
          "internalType": "string",
          "name": "",
          "type": "string"
        }
      ],
      "stateMutability": "view",
      "type": "function"
    },
    {
      "inputs": [
        {
          "internalType": "uint256",
          "name": "tokenId_",
          "type": "uint256"
        }
      ],
      "name": "tokenURI",
      "outputs": [
        {
          "internalType": "string",
          "name": "",
          "type": "string"
        }
      ],
      "stateMutability": "view",
      "type": "function"
    },
    {
      "inputs": [],
      "name": "totalSupply",
      "outputs": [
        {
          "internalType": "uint256",
          "name": "",
          "type": "uint256"
        }
      ],
      "stateMutability": "view",
      "type": "function"
    },
    {
      "inputs": [
        {
          "internalType": "address",
          "name": "from",
          "type": "address"
        },
        {
          "internalType": "address",
          "name": "to",
          "type": "address"
        },
        {
          "internalType": "uint256",
          "name": "tokenId",
          "type": "uint256"
        }
      ],
      "name": "transferFrom",
      "outputs": [],
      "stateMutability": "nonpayable",
      "type": "function"
    },
    {
      "inputs": [
        {
          "internalType": "address",
          "name": "newOwner",
          "type": "address"
        }
      ],
      "name": "transferOwnership",
      "outputs": [],
      "stateMutability": "nonpayable",
      "type": "function"
    },
    {
      "inputs": [
        {
          "internalType": "uint256",
          "name": "newMaxSupply",
          "type": "uint256"
        }
      ],
      "name": "updateMaxSupply",
      "outputs": [],
      "stateMutability": "nonpayable",
      "type": "function"
    },
    {
      "inputs": [
        {
          "internalType": "uint256",
          "name": "newMintPrice",
          "type": "uint256"
        }
      ],
      "name": "updateMintPrice",
      "outputs": [],
      "stateMutability": "nonpayable",
      "type": "function"
    },
    {
      "inputs": [
        {
          "internalType": "address",
          "name": "",
          "type": "address"
        }
      ],
      "name": "walletMints",
      "outputs": [
        {
          "internalType": "uint256",
          "name": "",
          "type": "uint256"
        }
      ],
      "stateMutability": "view",
      "type": "function"
    },
    {
      "inputs": [],
      "name": "withdraw",
      "outputs": [],
      "stateMutability": "nonpayable",
      "type": "function"
    },
    {
      "inputs": [],
      "name": "withdrawWallet",
      "outputs": [
        {
          "internalType": "address payable",
          "name": "",
          "type": "address"
        }
      ],
      "stateMutability": "view",
      "type": "function"
    }
  ],
  "bytecode": "0x60806040526040518060400160405280600581526020017f45644e46540000000000000000000000000000000000000000000000000000008152506040518060400160405280600281526020017f454e000000000000000000000000000000000000000000000000000000000000815250816000908162000081919062000455565b50806001908162000093919062000455565b505050620000b6620000aa6200010d60201b60201c565b6200011560201b60201c565b66038d7ea4c68000600781905550600060088190555060146009819055506014600a8190555060405180606001604052806036815260200162003d2860369139600c908162000106919062000455565b506200053c565b600033905090565b6000600660009054906101000a900473ffffffffffffffffffffffffffffffffffffffff16905081600660006101000a81548173ffffffffffffffffffffffffffffffffffffffff021916908373ffffffffffffffffffffffffffffffffffffffff1602179055508173ffffffffffffffffffffffffffffffffffffffff168173ffffffffffffffffffffffffffffffffffffffff167f8be0079c531659141344cd1fd0a4f28419497f9722a3daafe3b4186f6b6457e060405160405180910390a35050565b600081519050919050565b7f4e487b7100000000000000000000000000000000000000000000000000000000600052604160045260246000fd5b7f4e487b7100000000000000000000000000000000000000000000000000000000600052602260045260246000fd5b600060028204905060018216806200025d57607f821691505b60208210810362000273576200027262000215565b5b50919050565b60008190508160005260206000209050919050565b60006020601f8301049050919050565b600082821b905092915050565b600060088302620002dd7fffffffffffffffffffffffffffffffffffffffffffffffffffffffffffffffff826200029e565b620002e986836200029e565b95508019841693508086168417925050509392505050565b6000819050919050565b6000819050919050565b600062000336620003306200032a8462000301565b6200030b565b62000301565b9050919050565b6000819050919050565b620003528362000315565b6200036a62000361826200033d565b848454620002ab565b825550505050565b600090565b6200038162000372565b6200038e81848462000347565b505050565b5b81811015620003b657620003aa60008262000377565b60018101905062000394565b5050565b601f8211156200040557620003cf8162000279565b620003da846200028e565b81016020851015620003ea578190505b62000402620003f9856200028e565b83018262000393565b50505b505050565b600082821c905092915050565b60006200042a600019846008026200040a565b1980831691505092915050565b600062000445838362000417565b9150826002028217905092915050565b6200046082620001db565b67ffffffffffffffff8111156200047c576200047b620001e6565b5b62000488825462000244565b62000495828285620003ba565b600060209050601f831160018114620004cd5760008415620004b8578287015190505b620004c4858262000437565b86555062000534565b601f198416620004dd8662000279565b60005b828110156200050757848901518255600182019150602085019450602081019050620004e0565b8683101562000527578489015162000523601f89168262000417565b8355505b6001600288020188555050505b505050505050565b6137dc806200054c6000396000f3fe6080604052600436106101d75760003560e01c806370a0823111610102578063b88d4fde11610095578063e985e9c511610064578063e985e9c514610678578063f0293fd3146106b5578063f103b433146106f2578063f2fde38b1461071b576101d7565b8063b88d4fde146105bc578063c4e41b22146105e5578063c87b56dd14610610578063d5abeb011461064d576101d7565b806395652cfa116100d157806395652cfa1461052357806395d89b411461054c578063a0712d6814610577578063a22cb46514610593576101d7565b806370a0823114610479578063715018a6146104b657806385d178f4146104cd5780638da5cb5b146104f8576101d7565b80632373ac221161017a578063453c231011610149578063453c2310146103bb5780634c0f38c2146103e65780636352211e146104115780636817c76c1461044e576101d7565b80632373ac221461032957806323b872dd146103525780633ccfd60b1461037b57806342842e0e14610392576101d7565b806306fdde03116101b657806306fdde031461026d578063081812fc14610298578063095ea7b3146102d557806318160ddd146102fe576101d7565b8062728e46146101dc5780630116bc2d1461020557806301ffc9a714610230575b600080fd5b3480156101e857600080fd5b5061020360048036038101906101fe9190612186565b610744565b005b34801561021157600080fd5b5061021a610756565b60405161022791906121ce565b60405180910390f35b34801561023c57600080fd5b5061025760048036038101906102529190612241565b610769565b60405161026491906121ce565b60405180910390f35b34801561027957600080fd5b5061028261084b565b60405161028f91906122fe565b60405180910390f35b3480156102a457600080fd5b506102bf60048036038101906102ba9190612186565b6108dd565b6040516102cc9190612361565b60405180910390f35b3480156102e157600080fd5b506102fc60048036038101906102f791906123a8565b610923565b005b34801561030a57600080fd5b50610313610a3a565b60405161032091906123f7565b60405180910390f35b34801561033557600080fd5b50610350600480360381019061034b919061243e565b610a40565b005b34801561035e57600080fd5b506103796004803603810190610374919061246b565b610a65565b005b34801561038757600080fd5b50610390610ac5565b005b34801561039e57600080fd5b506103b960048036038101906103b4919061246b565b610b9e565b005b3480156103c757600080fd5b506103d0610bbe565b6040516103dd91906123f7565b60405180910390f35b3480156103f257600080fd5b506103fb610bc4565b60405161040891906123f7565b60405180910390f35b34801561041d57600080fd5b5061043860048036038101906104339190612186565b610bce565b6040516104459190612361565b60405180910390f35b34801561045a57600080fd5b50610463610c54565b60405161047091906123f7565b60405180910390f35b34801561048557600080fd5b506104a0600480360381019061049b91906124be565b610c5a565b6040516104ad91906123f7565b60405180910390f35b3480156104c257600080fd5b506104cb610d11565b005b3480156104d957600080fd5b506104e2610d25565b6040516104ef919061250c565b60405180910390f35b34801561050457600080fd5b5061050d610d4b565b60405161051a9190612361565b60405180910390f35b34801561052f57600080fd5b5061054a6004803603810190610545919061258c565b610d75565b005b34801561055857600080fd5b50610561610d93565b60405161056e91906122fe565b60405180910390f35b610591600480360381019061058c9190612186565b610e25565b005b34801561059f57600080fd5b506105ba60048036038101906105b591906125d9565b610ffc565b005b3480156105c857600080fd5b506105e360048036038101906105de9190612749565b611012565b005b3480156105f157600080fd5b506105fa611074565b60405161060791906123f7565b60405180910390f35b34801561061c57600080fd5b5061063760048036038101906106329190612186565b61107e565b60405161064491906122fe565b60405180910390f35b34801561065957600080fd5b506106626110fa565b60405161066f91906123f7565b60405180910390f35b34801561068457600080fd5b5061069f600480360381019061069a91906127cc565b611100565b6040516106ac91906121ce565b60405180910390f35b3480156106c157600080fd5b506106dc60048036038101906106d791906124be565b611194565b6040516106e991906123f7565b60405180910390f35b3480156106fe57600080fd5b5061071960048036038101906107149190612186565b6111ac565b005b34801561072757600080fd5b50610742600480360381019061073d91906124be565b6111be565b005b61074c611241565b8060078190555050565b600b60009054906101000a900460ff1681565b60007f80ac58cd000000000000000000000000000000000000000000000000000000007bffffffffffffffffffffffffffffffffffffffffffffffffffffffff1916827bffffffffffffffffffffffffffffffffffffffffffffffffffffffff1916148061083457507f5b5e139f000000000000000000000000000000000000000000000000000000007bffffffffffffffffffffffffffffffffffffffffffffffffffffffff1916827bffffffffffffffffffffffffffffffffffffffffffffffffffffffff1916145b806108445750610843826112bf565b5b9050919050565b60606000805461085a9061283b565b80601f01602080910402602001604051908101604052809291908181526020018280546108869061283b565b80156108d35780601f106108a8576101008083540402835291602001916108d3565b820191906000526020600020905b8154815290600101906020018083116108b657829003601f168201915b5050505050905090565b60006108e882611329565b6004600083815260200190815260200160002060009054906101000a900473ffffffffffffffffffffffffffffffffffffffff169050919050565b600061092e82610bce565b90508073ffffffffffffffffffffffffffffffffffffffff168373ffffffffffffffffffffffffffffffffffffffff160361099e576040517f08c379a0000000000000000000000000000000000000000000000000000000008152600401610995906128de565b60405180910390fd5b8073ffffffffffffffffffffffffffffffffffffffff166109bd611374565b73ffffffffffffffffffffffffffffffffffffffff1614806109ec57506109eb816109e6611374565b611100565b5b610a2b576040517f08c379a0000000000000000000000000000000000000000000000000000000008152600401610a2290612970565b60405180910390fd5b610a35838361137c565b505050565b60085481565b610a48611241565b80600b60006101000a81548160ff02191690831515021790555050565b610a76610a70611374565b82611435565b610ab5576040517f08c379a0000000000000000000000000000000000000000000000000000000008152600401610aac90612a02565b60405180910390fd5b610ac08383836114ca565b505050565b610acd611241565b6000600d60009054906101000a900473ffffffffffffffffffffffffffffffffffffffff1673ffffffffffffffffffffffffffffffffffffffff1647604051610b1590612a53565b60006040518083038185875af1925050503d8060008114610b52576040519150601f19603f3d011682016040523d82523d6000602084013e610b57565b606091505b5050905080610b9b576040517f08c379a0000000000000000000000000000000000000000000000000000000008152600401610b9290612ab4565b60405180910390fd5b50565b610bb983838360405180602001604052806000815250611012565b505050565b600a5481565b6000600954905090565b600080610bda836117c3565b9050600073ffffffffffffffffffffffffffffffffffffffff168173ffffffffffffffffffffffffffffffffffffffff1603610c4b576040517f08c379a0000000000000000000000000000000000000000000000000000000008152600401610c4290612b20565b60405180910390fd5b80915050919050565b60075481565b60008073ffffffffffffffffffffffffffffffffffffffff168273ffffffffffffffffffffffffffffffffffffffff1603610cca576040517f08c379a0000000000000000000000000000000000000000000000000000000008152600401610cc190612bb2565b60405180910390fd5b600360008373ffffffffffffffffffffffffffffffffffffffff1673ffffffffffffffffffffffffffffffffffffffff168152602001908152602001600020549050919050565b610d19611241565b610d236000611800565b565b600d60009054906101000a900473ffffffffffffffffffffffffffffffffffffffff1681565b6000600660009054906101000a900473ffffffffffffffffffffffffffffffffffffffff16905090565b610d7d611241565b8181600c9182610d8e929190612d89565b505050565b606060018054610da29061283b565b80601f0160208091040260200160405190810160405280929190818152602001828054610dce9061283b565b8015610e1b5780601f10610df057610100808354040283529160200191610e1b565b820191906000526020600020905b815481529060010190602001808311610dfe57829003601f168201915b5050505050905090565b600b60009054906101000a900460ff16610e74576040517f08c379a0000000000000000000000000000000000000000000000000000000008152600401610e6b90612ea5565b60405180910390fd5b60075481610e829190612ef4565b3414610ec3576040517f08c379a0000000000000000000000000000000000000000000000000000000008152600401610eba90612f82565b60405180910390fd5b60095481600854610ed49190612fa2565b1115610f15576040517f08c379a0000000000000000000000000000000000000000000000000000000008152600401610f0c90613022565b60405180910390fd5b600a5481600e60003373ffffffffffffffffffffffffffffffffffffffff1673ffffffffffffffffffffffffffffffffffffffff16815260200190815260200160002054610f639190612fa2565b1115610fa4576040517f08c379a0000000000000000000000000000000000000000000000000000000008152600401610f9b9061308e565b60405180910390fd5b60005b81811015610ff85760006001600854610fc09190612fa2565b905060086000815480929190610fd5906130ae565b9190505550610fe433826118c6565b508080610ff0906130ae565b915050610fa7565b5050565b61100e611007611374565b83836118e4565b5050565b61102361101d611374565b83611435565b611062576040517f08c379a000000000000000000000000000000000000000000000000000000000815260040161105990612a02565b60405180910390fd5b61106e84848484611a50565b50505050565b6000600854905090565b606061108982611aac565b6110c8576040517f08c379a00000000000000000000000000000000000000000000000000000000081526004016110bf90613142565b60405180910390fd5b600c6110d383611aed565b6040516020016110e492919061326d565b6040516020818303038152906040529050919050565b60095481565b6000600560008473ffffffffffffffffffffffffffffffffffffffff1673ffffffffffffffffffffffffffffffffffffffff16815260200190815260200160002060008373ffffffffffffffffffffffffffffffffffffffff1673ffffffffffffffffffffffffffffffffffffffff16815260200190815260200160002060009054906101000a900460ff16905092915050565b600e6020528060005260406000206000915090505481565b6111b4611241565b8060098190555050565b6111c6611241565b600073ffffffffffffffffffffffffffffffffffffffff168173ffffffffffffffffffffffffffffffffffffffff1603611235576040517f08c379a000000000000000000000000000000000000000000000000000000000815260040161122c9061330e565b60405180910390fd5b61123e81611800565b50565b611249611374565b73ffffffffffffffffffffffffffffffffffffffff16611267610d4b565b73ffffffffffffffffffffffffffffffffffffffff16146112bd576040517f08c379a00000000000000000000000000000000000000000000000000000000081526004016112b49061337a565b60405180910390fd5b565b60007f01ffc9a7000000000000000000000000000000000000000000000000000000007bffffffffffffffffffffffffffffffffffffffffffffffffffffffff1916827bffffffffffffffffffffffffffffffffffffffffffffffffffffffff1916149050919050565b61133281611aac565b611371576040517f08c379a000000000000000000000000000000000000000000000000000000000815260040161136890612b20565b60405180910390fd5b50565b600033905090565b816004600083815260200190815260200160002060006101000a81548173ffffffffffffffffffffffffffffffffffffffff021916908373ffffffffffffffffffffffffffffffffffffffff160217905550808273ffffffffffffffffffffffffffffffffffffffff166113ef83610bce565b73ffffffffffffffffffffffffffffffffffffffff167f8c5be1e5ebec7d5bd14f71427d1e84f3dd0314c0f7b2291e5b200ac8c7c3b92560405160405180910390a45050565b60008061144183610bce565b90508073ffffffffffffffffffffffffffffffffffffffff168473ffffffffffffffffffffffffffffffffffffffff16148061148357506114828185611100565b5b806114c157508373ffffffffffffffffffffffffffffffffffffffff166114a9846108dd565b73ffffffffffffffffffffffffffffffffffffffff16145b91505092915050565b8273ffffffffffffffffffffffffffffffffffffffff166114ea82610bce565b73ffffffffffffffffffffffffffffffffffffffff1614611540576040517f08c379a00000000000000000000000000000000000000000000000000000000081526004016115379061340c565b60405180910390fd5b600073ffffffffffffffffffffffffffffffffffffffff168273ffffffffffffffffffffffffffffffffffffffff16036115af576040517f08c379a00000000000000000000000000000000000000000000000000000000081526004016115a69061349e565b60405180910390fd5b6115bc8383836001611bbb565b8273ffffffffffffffffffffffffffffffffffffffff166115dc82610bce565b73ffffffffffffffffffffffffffffffffffffffff1614611632576040517f08c379a00000000000000000000000000000000000000000000000000000000081526004016116299061340c565b60405180910390fd5b6004600082815260200190815260200160002060006101000a81549073ffffffffffffffffffffffffffffffffffffffff02191690556001600360008573ffffffffffffffffffffffffffffffffffffffff1673ffffffffffffffffffffffffffffffffffffffff168152602001908152602001600020600082825403925050819055506001600360008473ffffffffffffffffffffffffffffffffffffffff1673ffffffffffffffffffffffffffffffffffffffff16815260200190815260200160002060008282540192505081905550816002600083815260200190815260200160002060006101000a81548173ffffffffffffffffffffffffffffffffffffffff021916908373ffffffffffffffffffffffffffffffffffffffff160217905550808273ffffffffffffffffffffffffffffffffffffffff168473ffffffffffffffffffffffffffffffffffffffff167fddf252ad1be2c89b69c2b068fc378daa952ba7f163c4a11628f55a4df523b3ef60405160405180910390a46117be8383836001611bc1565b505050565b60006002600083815260200190815260200160002060009054906101000a900473ffffffffffffffffffffffffffffffffffffffff169050919050565b6000600660009054906101000a900473ffffffffffffffffffffffffffffffffffffffff16905081600660006101000a81548173ffffffffffffffffffffffffffffffffffffffff021916908373ffffffffffffffffffffffffffffffffffffffff1602179055508173ffffffffffffffffffffffffffffffffffffffff168173ffffffffffffffffffffffffffffffffffffffff167f8be0079c531659141344cd1fd0a4f28419497f9722a3daafe3b4186f6b6457e060405160405180910390a35050565b6118e0828260405180602001604052806000815250611bc7565b5050565b8173ffffffffffffffffffffffffffffffffffffffff168373ffffffffffffffffffffffffffffffffffffffff1603611952576040517f08c379a00000000000000000000000000000000000000000000000000000000081526004016119499061350a565b60405180910390fd5b80600560008573ffffffffffffffffffffffffffffffffffffffff1673ffffffffffffffffffffffffffffffffffffffff16815260200190815260200160002060008473ffffffffffffffffffffffffffffffffffffffff1673ffffffffffffffffffffffffffffffffffffffff16815260200190815260200160002060006101000a81548160ff0219169083151502179055508173ffffffffffffffffffffffffffffffffffffffff168373ffffffffffffffffffffffffffffffffffffffff167f17307eab39ab6107e8899845ad3d59bd9653f200f220920489ca2b5937696c3183604051611a4391906121ce565b60405180910390a3505050565b611a5b8484846114ca565b611a6784848484611c22565b611aa6576040517f08c379a0000000000000000000000000000000000000000000000000000000008152600401611a9d9061359c565b60405180910390fd5b50505050565b60008073ffffffffffffffffffffffffffffffffffffffff16611ace836117c3565b73ffffffffffffffffffffffffffffffffffffffff1614159050919050565b606060006001611afc84611da9565b01905060008167ffffffffffffffff811115611b1b57611b1a61261e565b5b6040519080825280601f01601f191660200182016040528015611b4d5781602001600182028036833780820191505090505b509050600082602001820190505b600115611bb0578080600190039150507f3031323334353637383961626364656600000000000000000000000000000000600a86061a8153600a8581611ba457611ba36135bc565b5b04945060008503611b5b575b819350505050919050565b50505050565b50505050565b611bd18383611efc565b611bde6000848484611c22565b611c1d576040517f08c379a0000000000000000000000000000000000000000000000000000000008152600401611c149061359c565b60405180910390fd5b505050565b6000611c438473ffffffffffffffffffffffffffffffffffffffff16612119565b15611d9c578373ffffffffffffffffffffffffffffffffffffffff1663150b7a02611c6c611374565b8786866040518563ffffffff1660e01b8152600401611c8e9493929190613640565b6020604051808303816000875af1925050508015611cca57506040513d601f19601f82011682018060405250810190611cc791906136a1565b60015b611d4c573d8060008114611cfa576040519150601f19603f3d011682016040523d82523d6000602084013e611cff565b606091505b506000815103611d44576040517f08c379a0000000000000000000000000000000000000000000000000000000008152600401611d3b9061359c565b60405180910390fd5b805181602001fd5b63150b7a0260e01b7bffffffffffffffffffffffffffffffffffffffffffffffffffffffff1916817bffffffffffffffffffffffffffffffffffffffffffffffffffffffff191614915050611da1565b600190505b949350505050565b600080600090507a184f03e93ff9f4daa797ed6e38ed64bf6a1f0100000000000000008310611e07577a184f03e93ff9f4daa797ed6e38ed64bf6a1f0100000000000000008381611dfd57611dfc6135bc565b5b0492506040810190505b6d04ee2d6d415b85acef81000000008310611e44576d04ee2d6d415b85acef81000000008381611e3a57611e396135bc565b5b0492506020810190505b662386f26fc100008310611e7357662386f26fc100008381611e6957611e686135bc565b5b0492506010810190505b6305f5e1008310611e9c576305f5e1008381611e9257611e916135bc565b5b0492506008810190505b6127108310611ec1576127108381611eb757611eb66135bc565b5b0492506004810190505b60648310611ee45760648381611eda57611ed96135bc565b5b0492506002810190505b600a8310611ef3576001810190505b80915050919050565b600073ffffffffffffffffffffffffffffffffffffffff168273ffffffffffffffffffffffffffffffffffffffff1603611f6b576040517f08c379a0000000000000000000000000000000000000000000000000000000008152600401611f629061371a565b60405180910390fd5b611f7481611aac565b15611fb4576040517f08c379a0000000000000000000000000000000000000000000000000000000008152600401611fab90613786565b60405180910390fd5b611fc2600083836001611bbb565b611fcb81611aac565b1561200b576040517f08c379a000000000000000000000000000000000000000000000000000000000815260040161200290613786565b60405180910390fd5b6001600360008473ffffffffffffffffffffffffffffffffffffffff1673ffffffffffffffffffffffffffffffffffffffff16815260200190815260200160002060008282540192505081905550816002600083815260200190815260200160002060006101000a81548173ffffffffffffffffffffffffffffffffffffffff021916908373ffffffffffffffffffffffffffffffffffffffff160217905550808273ffffffffffffffffffffffffffffffffffffffff16600073ffffffffffffffffffffffffffffffffffffffff167fddf252ad1be2c89b69c2b068fc378daa952ba7f163c4a11628f55a4df523b3ef60405160405180910390a4612115600083836001611bc1565b5050565b6000808273ffffffffffffffffffffffffffffffffffffffff163b119050919050565b6000604051905090565b600080fd5b600080fd5b6000819050919050565b61216381612150565b811461216e57600080fd5b50565b6000813590506121808161215a565b92915050565b60006020828403121561219c5761219b612146565b5b60006121aa84828501612171565b91505092915050565b60008115159050919050565b6121c8816121b3565b82525050565b60006020820190506121e360008301846121bf565b92915050565b60007fffffffff0000000000000000000000000000000000000000000000000000000082169050919050565b61221e816121e9565b811461222957600080fd5b50565b60008135905061223b81612215565b92915050565b60006020828403121561225757612256612146565b5b60006122658482850161222c565b91505092915050565b600081519050919050565b600082825260208201905092915050565b60005b838110156122a857808201518184015260208101905061228d565b60008484015250505050565b6000601f19601f8301169050919050565b60006122d08261226e565b6122da8185612279565b93506122ea81856020860161228a565b6122f3816122b4565b840191505092915050565b6000602082019050818103600083015261231881846122c5565b905092915050565b600073ffffffffffffffffffffffffffffffffffffffff82169050919050565b600061234b82612320565b9050919050565b61235b81612340565b82525050565b60006020820190506123766000830184612352565b92915050565b61238581612340565b811461239057600080fd5b50565b6000813590506123a28161237c565b92915050565b600080604083850312156123bf576123be612146565b5b60006123cd85828601612393565b92505060206123de85828601612171565b9150509250929050565b6123f181612150565b82525050565b600060208201905061240c60008301846123e8565b92915050565b61241b816121b3565b811461242657600080fd5b50565b60008135905061243881612412565b92915050565b60006020828403121561245457612453612146565b5b600061246284828501612429565b91505092915050565b60008060006060848603121561248457612483612146565b5b600061249286828701612393565b93505060206124a386828701612393565b92505060406124b486828701612171565b9150509250925092565b6000602082840312156124d4576124d3612146565b5b60006124e284828501612393565b91505092915050565b60006124f682612320565b9050919050565b612506816124eb565b82525050565b600060208201905061252160008301846124fd565b92915050565b600080fd5b600080fd5b600080fd5b60008083601f84011261254c5761254b612527565b5b8235905067ffffffffffffffff8111156125695761256861252c565b5b60208301915083600182028301111561258557612584612531565b5b9250929050565b600080602083850312156125a3576125a2612146565b5b600083013567ffffffffffffffff8111156125c1576125c061214b565b5b6125cd85828601612536565b92509250509250929050565b600080604083850312156125f0576125ef612146565b5b60006125fe85828601612393565b925050602061260f85828601612429565b9150509250929050565b600080fd5b7f4e487b7100000000000000000000000000000000000000000000000000000000600052604160045260246000fd5b612656826122b4565b810181811067ffffffffffffffff821117156126755761267461261e565b5b80604052505050565b600061268861213c565b9050612694828261264d565b919050565b600067ffffffffffffffff8211156126b4576126b361261e565b5b6126bd826122b4565b9050602081019050919050565b82818337600083830152505050565b60006126ec6126e784612699565b61267e565b90508281526020810184848401111561270857612707612619565b5b6127138482856126ca565b509392505050565b600082601f8301126127305761272f612527565b5b81356127408482602086016126d9565b91505092915050565b6000806000806080858703121561276357612762612146565b5b600061277187828801612393565b945050602061278287828801612393565b935050604061279387828801612171565b925050606085013567ffffffffffffffff8111156127b4576127b361214b565b5b6127c08782880161271b565b91505092959194509250565b600080604083850312156127e3576127e2612146565b5b60006127f185828601612393565b925050602061280285828601612393565b9150509250929050565b7f4e487b7100000000000000000000000000000000000000000000000000000000600052602260045260246000fd5b6000600282049050600182168061285357607f821691505b6020821081036128665761286561280c565b5b50919050565b7f4552433732313a20617070726f76616c20746f2063757272656e74206f776e6560008201527f7200000000000000000000000000000000000000000000000000000000000000602082015250565b60006128c8602183612279565b91506128d38261286c565b604082019050919050565b600060208201905081810360008301526128f7816128bb565b9050919050565b7f4552433732313a20617070726f76652063616c6c6572206973206e6f7420746f60008201527f6b656e206f776e6572206f7220617070726f76656420666f7220616c6c000000602082015250565b600061295a603d83612279565b9150612965826128fe565b604082019050919050565b600060208201905081810360008301526129898161294d565b9050919050565b7f4552433732313a2063616c6c6572206973206e6f7420746f6b656e206f776e6560008201527f72206f7220617070726f76656400000000000000000000000000000000000000602082015250565b60006129ec602d83612279565b91506129f782612990565b604082019050919050565b60006020820190508181036000830152612a1b816129df565b9050919050565b600081905092915050565b50565b6000612a3d600083612a22565b9150612a4882612a2d565b600082019050919050565b6000612a5e82612a30565b9150819050919050565b7f7769746864726177206661696c65640000000000000000000000000000000000600082015250565b6000612a9e600f83612279565b9150612aa982612a68565b602082019050919050565b60006020820190508181036000830152612acd81612a91565b9050919050565b7f4552433732313a20696e76616c696420746f6b656e2049440000000000000000600082015250565b6000612b0a601883612279565b9150612b1582612ad4565b602082019050919050565b60006020820190508181036000830152612b3981612afd565b9050919050565b7f4552433732313a2061646472657373207a65726f206973206e6f74206120766160008201527f6c6964206f776e65720000000000000000000000000000000000000000000000602082015250565b6000612b9c602983612279565b9150612ba782612b40565b604082019050919050565b60006020820190508181036000830152612bcb81612b8f565b9050919050565b600082905092915050565b60008190508160005260206000209050919050565b60006020601f8301049050919050565b600082821b905092915050565b600060088302612c3f7fffffffffffffffffffffffffffffffffffffffffffffffffffffffffffffffff82612c02565b612c498683612c02565b95508019841693508086168417925050509392505050565b6000819050919050565b6000612c86612c81612c7c84612150565b612c61565b612150565b9050919050565b6000819050919050565b612ca083612c6b565b612cb4612cac82612c8d565b848454612c0f565b825550505050565b600090565b612cc9612cbc565b612cd4818484612c97565b505050565b5b81811015612cf857612ced600082612cc1565b600181019050612cda565b5050565b601f821115612d3d57612d0e81612bdd565b612d1784612bf2565b81016020851015612d26578190505b612d3a612d3285612bf2565b830182612cd9565b50505b505050565b600082821c905092915050565b6000612d6060001984600802612d42565b1980831691505092915050565b6000612d798383612d4f565b9150826002028217905092915050565b612d938383612bd2565b67ffffffffffffffff811115612dac57612dab61261e565b5b612db6825461283b565b612dc1828285612cfc565b6000601f831160018114612df05760008415612dde578287013590505b612de88582612d6d565b865550612e50565b601f198416612dfe86612bdd565b60005b82811015612e2657848901358255600182019150602085019450602081019050612e01565b86831015612e435784890135612e3f601f891682612d4f565b8355505b6001600288020188555050505b50505050505050565b7f6d696e74696e67206e6f7420656e61626c656400000000000000000000000000600082015250565b6000612e8f601383612279565b9150612e9a82612e59565b602082019050919050565b60006020820190508181036000830152612ebe81612e82565b9050919050565b7f4e487b7100000000000000000000000000000000000000000000000000000000600052601160045260246000fd5b6000612eff82612150565b9150612f0a83612150565b9250828202612f1881612150565b91508282048414831517612f2f57612f2e612ec5565b5b5092915050565b7f77726f6e67206d696e742076616c756500000000000000000000000000000000600082015250565b6000612f6c601083612279565b9150612f7782612f36565b602082019050919050565b60006020820190508181036000830152612f9b81612f5f565b9050919050565b6000612fad82612150565b9150612fb883612150565b9250828201905080821115612fd057612fcf612ec5565b5b92915050565b7f736f6c64206f7574000000000000000000000000000000000000000000000000600082015250565b600061300c600883612279565b915061301782612fd6565b602082019050919050565b6000602082019050818103600083015261303b81612fff565b9050919050565b7f657863656564206d61782077616c6c6574000000000000000000000000000000600082015250565b6000613078601183612279565b915061308382613042565b602082019050919050565b600060208201905081810360008301526130a78161306b565b9050919050565b60006130b982612150565b91507fffffffffffffffffffffffffffffffffffffffffffffffffffffffffffffffff82036130eb576130ea612ec5565b5b600182019050919050565b7f546f6b656e20646f6573206e6f74206578697374210000000000000000000000600082015250565b600061312c601583612279565b9150613137826130f6565b602082019050919050565b6000602082019050818103600083015261315b8161311f565b9050919050565b600081905092915050565b6000815461317a8161283b565b6131848186613162565b9450600182166000811461319f57600181146131b4576131e7565b60ff19831686528115158202860193506131e7565b6131bd85612bdd565b60005b838110156131df578154818901526001820191506020810190506131c0565b838801955050505b50505092915050565b60006131fb8261226e565b6132058185613162565b935061321581856020860161228a565b80840191505092915050565b7f2e6a736f6e000000000000000000000000000000000000000000000000000000600082015250565b6000613257600583613162565b915061326282613221565b600582019050919050565b6000613279828561316d565b915061328582846131f0565b91506132908261324a565b91508190509392505050565b7f4f776e61626c653a206e6577206f776e657220697320746865207a65726f206160008201527f6464726573730000000000000000000000000000000000000000000000000000602082015250565b60006132f8602683612279565b91506133038261329c565b604082019050919050565b60006020820190508181036000830152613327816132eb565b9050919050565b7f4f776e61626c653a2063616c6c6572206973206e6f7420746865206f776e6572600082015250565b6000613364602083612279565b915061336f8261332e565b602082019050919050565b6000602082019050818103600083015261339381613357565b9050919050565b7f4552433732313a207472616e736665722066726f6d20696e636f72726563742060008201527f6f776e6572000000000000000000000000000000000000000000000000000000602082015250565b60006133f6602583612279565b91506134018261339a565b604082019050919050565b60006020820190508181036000830152613425816133e9565b9050919050565b7f4552433732313a207472616e7366657220746f20746865207a65726f2061646460008201527f7265737300000000000000000000000000000000000000000000000000000000602082015250565b6000613488602483612279565b91506134938261342c565b604082019050919050565b600060208201905081810360008301526134b78161347b565b9050919050565b7f4552433732313a20617070726f766520746f2063616c6c657200000000000000600082015250565b60006134f4601983612279565b91506134ff826134be565b602082019050919050565b60006020820190508181036000830152613523816134e7565b9050919050565b7f4552433732313a207472616e7366657220746f206e6f6e20455243373231526560008201527f63656976657220696d706c656d656e7465720000000000000000000000000000602082015250565b6000613586603283612279565b91506135918261352a565b604082019050919050565b600060208201905081810360008301526135b581613579565b9050919050565b7f4e487b7100000000000000000000000000000000000000000000000000000000600052601260045260246000fd5b600081519050919050565b600082825260208201905092915050565b6000613612826135eb565b61361c81856135f6565b935061362c81856020860161228a565b613635816122b4565b840191505092915050565b60006080820190506136556000830187612352565b6136626020830186612352565b61366f60408301856123e8565b81810360608301526136818184613607565b905095945050505050565b60008151905061369b81612215565b92915050565b6000602082840312156136b7576136b6612146565b5b60006136c58482850161368c565b91505092915050565b7f4552433732313a206d696e7420746f20746865207a65726f2061646472657373600082015250565b6000613704602083612279565b915061370f826136ce565b602082019050919050565b60006020820190508181036000830152613733816136f7565b9050919050565b7f4552433732313a20746f6b656e20616c7265616479206d696e74656400000000600082015250565b6000613770601c83612279565b915061377b8261373a565b602082019050919050565b6000602082019050818103600083015261379f81613763565b905091905056fea264697066735822122013ba29771d6ecd812f129dc105d9edf9008ba1c091da69008f778748533f61e664736f6c63430008120033697066733a2f2f516d55503352676972736b5357744a4745456751705a7a4e556d6a6b7061797561343248384762745378415139782f",
  "linkReferences": {},
  "deployedLinkReferences": {}
}